:1000000068C1000086C1000084C1000082C10000F8
:1000100080C100007EC100007CC100007AC10000E8
:1000200078C1000076C1000074C1000072C10000F8
:1000300070C100006EC100006CC100006AC1000008
:1000400068C1000066C1000064C1000062C1000018
:1000500060C100005EC100005CC100005AC1000028
:1000600058C1000056C1000054C1000052C1000038
:1000700050C100004EC100004CC100004AC1000048
:1000800048C1000046C1000044C1000042C1000058
:1000900040C100003EC100003CC100003AC1000068
:1000A00038C1000036C1000034C1000032C1000078
:1000B00030C100002EC100002CC100002AC1000088
:1000C00028C1000026C1000024C1000022C1000098
:1000D00020C100001EC100001CC100001AC10000A8
:1000E00018C1000077067006690662067B067B066B
:1000F0007B067B067B067B065D06580653064E068E
:100100007B067B067B067B067B067B064906440650
:100110003D063B067B067B067B067B067B067B0655
:10012000360631062A06280608000000BE92244939
:10013000123EABAAAA2ABECDCCCC4C3E0000008019
:10014000BEABAAAAAA3E00000000BF000000803F8C
:100150000000000000084178D3BB4387D1133D194C
:100160000E3CC3BD4282AD2B3E68EC8276BED98F79
:10017000E1A93E4C80EFFFBE01C4FF7F3F000000BD
:1001800000006E616E00696E660000407A10F35ADE
:1001900000A0724E18090010A5D4E80000E87648C7
:1001A000170000E40B54020000CA9A3B000000E173
:1001B000F505000080969800000040420F00000006
:1001C000A08601000000102700000000E8030000E6
:1001D00000006400000000000A00000000000100B0
:1001E000000000002C76D888DC674F0823DFC1DFD1
:1001F000AE59E1B1B796E5E3E453C63AE6519976D4
:1002000096E8E6C28426EB898C9B62ED407C6FFC0D
:10021000EFBC9C9F40F2BAA56FA5F490055A2AF74F
:100220005C936B6CF9676DC11BFCE0E40D47FEF558
:1002300020E6B500D0ED902E0300943577050080C0
:10024000841E080000204E0A000000C80C3333331F
:10025000330F986E12831141EF8D2114893BE655BF
:1002600016CFFEE6DB18D1844B381BF77C1D901DA2
:10027000A4BBE424203284725E228100C9F124EC04
:10028000A1E53D276364696E6F70737578585B658F
:10029000666745464700616E006E66696E697479EF
:1002A00000CDCCCC3D0AD7233C17B7D13877CC2B27
:1002B000329595E6241FB14F0A000020410000C886
:1002C0004200401C4620BCBE4CCA1B0E5AAEC59D07
:1002D000740011241FBECFEFD1E2DEBFCDBF00E01E
:1002E0000CBF12E0A0E0B2E0EAE5F7E200E00BBFED
:1002F00002C007900D92A63DB107D9F722E0A6ED06
:10030000B2E001C01D92AE3DB207E1F70ED50C94EC
:10031000AB1376CE8A9A00008A980895CF93C82F9F
:10032000662311F0899A01C089988898839A849AE3
:10033000859A869A8E988D988C988B98CC230CF4FD
:100340008E9AC6FD8D9AC5FD8C9AC4FD8B9AE2DF0C
:100350008E988D988C988B98C3FD8E9AC2FD8D9A3D
:10036000C1FD8C9AC0FD8B9AD5DF8B9A8C9A8D9AA1
:100370008E9ACF910895882311F0899A01C08998A7
:10038000889A83988498859886988A9A00007B9B9F
:1003900002C080E101C080E07C9980627D99806428
:1003A0007E9980688A9800008A9A00007B99816013
:1003B0007C9982607D9984607E9988608A9808958E
:1003C00080E0D9DF8823E4F300C000C080E0D3CF11
:1003D0000895CF93C82FF4DF60E08C2F9FDFCF917B
:1003E000089581E0F6CF0895CF93C82FE9DFCA3092
:1003F00041F4803410F080E001C080E48058E9DFEF
:1004000003C061E08C2F8ADFCF910895CF93DF93F3
:10041000EC012196FC018081882321F0E5DF8991A0
:100420008111FCCFDF91CF910895CF93C82F819A8E
:10043000809A829A839A849A859A869A8FE99FE015
:100440000197F1F700C000008C9A8B9A63DF81EE70
:1004500094E00197F1F700C000005CDF95E19A9508
:10046000F1F7000057DF85E18A95F1F700008B98DE
:1004700051DF95E19A95F1F7000088E2AADF88E064
:10048000A8DFAFDF86E0A5DF8C2FA3DFCF91089533
:10049000CF92DF92EF92FF920F931F93CF93DF9350
:1004A000CDB7DEB76E970FB6F894DEBF0FBECDBFE7
:1004B00098DF8FE0E0E1F2E0DE01119601900D920D
:1004C0008A95E1F78FE0EFE1F2E0DE0150960190CE
:1004D0000D928A95E1F7CE0101967C0100E010E0D3
:1004E0006C0110C0F70181917F0190E07DDFFFEF8B
:1004F00021EE84E0F15020408040E1F700C0000090
:100500000F5F1F4FF60101900020E9F73197EC19BA
:10051000FD090E171F0730F36E0190E1C90ED11CC3
:1005200000E010E0760110C0F60181916F0190E0CB
:100530005BDFFFEF21EE84E0F15020408040E1F7E7
:1005400000C000000F5F1F4FF70101900020E9F786
:100550003197EE19FF090E171F0730F36E960FB68D
:10056000F894DEBF0FBECDBFDF91CF911F910F91E9
:10057000FF90EF90DF90CF900895AF92BF92CF920F
:10058000DF92EF92FF920F931F93CF93DF93CDB73C
:10059000DEB7CF55D1090FB6F894DEBF0FBECDBF81
:1005A00020DF8EE0EEE2F2E0DE01119601900D9286
:1005B0008A95E1F78CE0ECE3F2E0DE011F96019012
:1005C0000D928A95E1F788E0E8E4F2E0DE015B96BF
:1005D00001900D928A95E1F78DE0E0E5F2E0DE0111
:1005E000939601900D928A95E1F78DE0EDE5F2E0AA
:1005F000DE01D09601900D928A95E1F780E1EAE65E
:10060000F2E0DE01DD9601900D928A95E1F78EE031
:10061000EAE7F2E0DE01A35BBF4F01900D928A95FD
:10062000E1F785E0E8E8F2E0DE01A55ABF4F01906E
:100630000D928A95E1F7CE0101967C01FC016C01D7
:1006400000E010E05F0110C0F60181916F0190E0C1
:10065000CBDEFFEF21EE84E0F15020408040E1F757
:1006600000C000000F5F1F4FF50101900020E9F767
:100670003197EA19FB090E171F0730F39FEFE9E6E0
:10068000F8E19150E040F040E1F700C0000000E0E8
:1006900010E0CE0101966C0110C0F70181917F013D
:1006A00090E0A2DEFFEF21EE84E0F1502040804098
:1006B000E1F700C000000F5F1F4FF601019000201E
:1006C000E9F73197EC19FD090E171F0730F39FEF7B
:1006D000E9E6F8E19150E040F040E1F700C00000A9
:1006E00080DE6E012FE0C20ED11C00E010E076012A
:1006F00010C0F60181916F0190E076DEFFEF21EEF0
:1007000084E0F15020408040E1F700C000000F5F1E
:100710001F4FF70101900020E9F73197EE19FF090B
:100720000E171F0730F36E019BE1C90ED11C00E0CC
:1007300010E0760110C0F60181916F0190E054DE67
:10074000FFEF21EE84E0F15020408040E1F700C04F
:1007500000000F5F1F4FF70101900020E9F731976C
:10076000EE19FF090E171F0730F39FEFE9E6F8E1D6
:100770009150E040F040E1F700C0000032DE6E0131
:1007800023E2C20ED11C00E010E0760110C0F60199
:1007900081916F0190E028DEFFEF21EE84E0F150BF
:1007A00020408040E1F700C000000F5F1F4FF701BD
:1007B00001900020E9F73197EE19FF090E171F0786
:1007C00030F39FEFE9E6F8E19150E040F040E1F7C7
:1007D00000C000006E0120E3C20ED11C00E010E05A
:1007E000760110C0F60181916F0190E0FDDDFFEF11
:1007F00021EE84E0F15020408040E1F700C000008D
:100800000F5F1F4FF70101900020E9F73197EE19B4
:10081000FF090E171F0730F39FEFE9E6F8E191504B
:10082000E040F040E1F700C00000DBDD6E012DE3A9
:10083000C20ED11C00E010E0760110C0F6018191DB
:100840006F0190E0D1DDFFEF21EE84E0F150204018
:100850008040E1F700C000000F5F1F4FF7010190DB
:100860000020E9F73197EE19FF090E171F0730F343
:100870006E019DE4C90ED11C00E010E0760110C0AD
:10088000F60181916F0190E0AFDDFFEF21EE84E092
:10089000F15020408040E1F700C000000F5F1F4F83
:1008A000F70101900020E9F73197EE19FF090E17C3
:1008B0001F0730F39FEFE9E6F8E19150E040F04088
:1008C000E1F700C00000CE01855A9F4F9FDDC15A5D
:1008D000DF4F0FB6F894DEBF0FBECDBFDF91CF91D3
:1008E0001F910F91FF90EF90DF90CF90BF90AF904E
:1008F0000895CF9381E082B92FEF31EE44E021508B
:1009000030404040E1F700C0000083E082B95FEF73
:1009100061EE74E0515060407040E1F700C00000AB
:1009200097E092B9AFEFB1EEC4E0A150B040C04043
:10093000E1F700C000002FE022B9EFEFF1EE34E064
:10094000E150F0403040E1F700C000003FE132B933
:100950004FEF51EE64E0415050406040E1F700C07D
:1009600000004FE342B97FEFA1EEB4E07150A04028
:10097000B040E1F700C000005EE352B9CFEFE1EE16
:10098000F4E0C150E040F040E1F700C000006CE34B
:1009900062B97FEFA1EEB4E07150A040B040E1F742
:1009A00000C0000078E372B9CFEFE1EEF4E0C1508F
:1009B000E040F040E1F700C00000E0E3E2B9AFEF53
:1009C000B1EEC4E0A150B040C040E1F700C000006B
:1009D000F0E2F2B9AFEFB1EEC4E0A150B040C040D8
:1009E000E1F700C0000012B8AFEFB1EEC4E0A150D3
:1009F000B040C040E1F700C00000F2B9FFEFA1EE47
:100A0000B4E0F150A040B040E1F700C00000E2B90E
:100A1000CFEFE1EEF4E0C150E040F040E1F700C07C
:100A2000000072B97FEFA1EEB4E07150A040B04079
:100A3000E1F700C0000062B9CFEFE1EEF4E0C15091
:100A4000E040F040E1F700C0000052B95FEF61EE16
:100A500074E0515060407040E1F700C0000042B9BE
:100A6000AFEFB1EEC4E0A150B040C040E1F700C02C
:100A7000000032B9EFEFF1EE34E0E150F0403040E9
:100A8000E1F700C0000022B94FEF51EE64E04150A1
:100A900050406040E1F700C0000092B97FEF91EE56
:100AA000A4E071509040A040E1F700C0000082B97E
:100AB000BFEFC1EEE4E0B150C040E040E1F700C05C
:100AC0000000CF9108958AEA82B92FEF83EC99E074
:100AD000215080409040E1F700C0000082B1809535
:100AE00082B92FEF83EC99E0215080409040E1F7EC
:100AF00000C0000008958FE382B9089512B80895E8
:100B000081B18FEF81B908958FE087B987B18F7078
:100B100087B987B18F6087B988B1806F88B988B18C
:100B20008F6088B9089588B18F6088B9809100027C
:100B3000909101028130910561F44098209100026A
:100B4000309101022F5F3F4F30930102209300024A
:100B500008958230910561F441982091000230910E
:100B600001022F5F3F4F309301022093000208954E
:100B70008330910561F44298209100023091010286
:100B80002F5F3F4F3093010220930002089584307D
:100B9000910541F4439821E030E030930102209325
:100BA0000002089580E090E00895379908C08FE32F
:100BB0009CE90197F1F700C00000379B21C03699EE
:100BC00008C08FE39CE90197F1F700C00000369B55
:100BD0001AC0359908C08FE39CE90197F1F700C06E
:100BE0000000359B13C0349914C08FE39CE9019732
:100BF000F1F700C00000349B0FC080E090E0089542
:100C000085E090E0089586E090E0089587E090E028
:100C1000089580E090E0089588E090E00895FC0158
:100C2000EE0FFF1F880F991F880F991F880F991FBC
:100C30008E0F9F1F860F971FFC013F97E232F10531
:100C400008F059C08827EE58FF4F8F4F0C94A6111B
:100C50001FCC089584EF91E090938D0080938C00D9
:100C60000895BFDB8DE892E0D1CB0895BADB86E929
:100C700092E0CCCB089581CC089584EC99E09093D8
:100C80008D0080938C000895ACDB8FE992E0BECBA1
:100C90000895A7DB88EA92E0B9CB0895A2DB81EB47
:100CA00092E0B4CB08959DDB8AEB92E0AFCB089540
:100CB00098DB83EC92E0AACB089593DB8CEC92E076
:100CC000A5CB089583E090E09093D7028093D6025D
:100CD000089582E090E09093D7028093D602089521
:100CE00081E090E09093D7028093D602089510920D
:100CF000D7021092D60208958091D6029091D70221
:100D00008130910561F01CF4892B39F0089582300F
:100D1000910539F0039739F00895F0CE0895EBCEA0
:100D20000895E7CD0895CFCE0895E8D08CE07DDB1F
:100D300058DBEADEE5DEADD013D026D0F4DEEC01E0
:100D40002FEF80E792E0215080409040E1F700C013
:100D500000002BDFBC01CE0162DFCEDF28D0EECF5A
:100D6000E0E9F0E08081886A80838081816080830F
:100D7000E1E9F0E080818860808380818360808306
:100D80008DB188638DB90895ECE7F0E080818064CF
:100D90008083EDE7F0E080818160808387EC809341
:100DA0007A00EBE7F0E08081886080830895CF923D
:100DB000DF92EF92FF9280917A0086FD42C06091AF
:100DC00078007091790080E090E0A5D19B01AC01A2
:100DD00060E070E080E894E40AD120E030E040E890
:100DE0005FE3A0D020E030E44CE156E467D226D2A5
:100DF0006B017C0129E537E44CEB53E35FD2A7019B
:100E000096015CD223E73FE745E759E38CD0A70181
:100E1000960154D22BEE3FEF43E95AE384D09B0175
:100E2000AC0160E070E080E89FE3E1D023E333E9C8
:100E300048E853E477D043D1EAE7F0E0808180646A
:100E400080836E31710578F41092990010929800A9
:100E500010929B0010929A008FEF90E090939D006B
:100E600080939C0011C06F31710570F08FEF90E09E
:100E7000909399008093980090939B0080939A00A0
:100E800010929D0010929C00FF90EF90DF90CF9009
:100E90000895A0E8B0E08C91886A8C93E1E8F0E0D6
:100EA0008081806180838C9182608C93808182605C
:100EB000808384B1806E84B980E29EE49093870041
:100EC000809386000895E0ECF0E0908195FFFDCFDF
:100ED0008093C6000895CF93E0ECF0E080818823F2
:100EE000ECF7C091C600CA3029F08C2FECDF8C2FB4
:100EF00090E002C08FEF9FEFCF910895E8EDF2E010
:100F000082E092E093838283918380831092C50074
:100F100087E68093C40088E18093C10086E08093D7
:100F2000C20008955058BB27AA270ED048C139D116
:100F300030F03ED120F031F49F3F11F41EF42EC169
:100F40000EF4E095E7FB24C1E92F4AD180F3BA17EC
:100F5000620773078407950718F071F49EF562C164
:100F60000EF4E0950B2EBA2FA02D0B01B9019001C4
:100F70000C01CA01A0011124FF27591B99F0593F08
:100F800050F4503E68F11A16F040A22F232F342F50
:100F90004427585FF3CF469537952795A795F0409E
:100FA0005395C9F77EF41F16BA0B620B730B840BB3
:100FB000BAF09150A1F0FF0FBB1F661F771F881F6B
:100FC000C2F70EC0BA0F621F731F841F48F48795C3
:100FD00077956795B795F7959E3F08F0B3CF9395B2
:100FE000880F08F09927EE0F9795879508950CD0F4
:100FF000E6C0DED040F0D5D030F021F45F3F19F0EC
:10100000C7C0511110C1CAC0EBD098F39923C9F3DE
:101010005523B1F3951B550BBB27AA2762177307FE
:10102000840738F09F5F5F4F220F331F441FAA1FB2
:10103000A9F333D00E2E3AF0E0E830D09150504072
:10104000E695001CCAF729D0FE2F27D0660F771F20
:10105000881FBB1F261737074807AB07B0E809F002
:10106000BB0B802DBF01FF2793585F4F2AF09E3F97
:10107000510568F08DC0D7C05F3FECF3983EDCF3BC
:10108000869577956795B795F7959F5FC9F7880F10
:10109000911D9695879597F90895E1E0660F771F62
:1010A000881FBB1F621773078407BA0720F0621BF3
:1010B000730B840BBA0BEE1F88F7E095089598D058
:1010C00088F09F5790F0B92F9927B751A0F0D1F031
:1010D000660F771F881F991F1AF0BA95C9F712C0BB
:1010E000B13081F09FD0B1E008959CC0672F782F78
:1010F0008827B85F39F0B93FCCF386957795679527
:10110000B395D9F73EF490958095709561957F4F92
:101110008F4F9F4F0895E89409C097FB3EF4909538
:101120008095709561957F4F8F4F9F4F9923A9F0C0
:10113000F92F96E9BB279395F6958795779567954F
:10114000B795F111F8CFFAF4BB0F11F460FF1BC093
:101150006F5F7F4F8F4F9F4F16C0882311F096E926
:1011600011C0772321F09EE8872F762F05C06623D4
:1011700071F096E8862F70E060E02AF09A95660F8D
:10118000771F881FDAF7880F9695879597F9089546
:1011900097F99F6780E870E060E008959FEF80EC2A
:1011A000089500240A9416161706180609060895CD
:1011B00000240A9412161306140605060895092E33
:1011C0000394000C11F4882352F0BB0F40F4BF2BA2
:1011D00011F460FF04C06F5F7F4F8F4F9F4F0895E2
:1011E00057FD9058440F551F59F05F3F71F04795D8
:1011F000880F97FB991F61F09F3F79F087950895BD
:10120000121613061406551FF2CF4695F1DF08C0DB
:10121000161617061806991FF1CF869571056105F8
:1012200008940895E894BB2766277727CB0197F9A0
:1012300008950EF0A6C0B2CF6894AACFD9DFC8F344
:101240009923D1F3C6F3DF93CF931F930F93FF92AC
:10125000C92FDD2788232AF02197660F771F881F63
:10126000DAF720E030E040E85FEB9FE3883920F0D8
:10127000803E30F021968F7756DEE8E2F1E003C041
:1012800052DEE5E5F1E08BD08B01BE01EC01FB2ED7
:101290006F5771097595771F880B990B3EDF28E111
:1012A00032E741E35FE316D0AF2D9801AE01FF9026
:1012B0000F911F91CF91DF9147DE81CF0BD07FCF70
:1012C00070DF28F075DF18F0952309F061CF66CF45
:1012D0001124A9CF85DFA0F3959FD1F3950F50E09E
:1012E000551F629FF001729FBB27F00DB11D639FD8
:1012F000AA27F00DB11DAA1F649F6627B00DA11D7E
:10130000661F829F2227B00DA11D621F739FB00D23
:10131000A11D621F839FA00D611D221F749F332793
:10132000A00D611D231F849F600D211D822F762F2C
:101330006A2F11249F5750408AF0E1F088234AF029
:10134000EE0FFF1FBB1F661F771F881F9150504075
:10135000A9F79E3F510570F01BCF65CF5F3FECF3BF
:10136000983EDCF3869577956795B795F795E79561
:101370009F5FC1F7FE2B880F911D9695879597F972
:1013800008959F3F31F0915020F4879577956795A8
:10139000B795880F911D9695879597F90895DF93D6
:1013A000CF931F930F93FF92EF92DF927B018C01FB
:1013B000689405C0DA2EEF018DDFFE01E894A59157
:1013C0002591359145915591AEF3EF01BDDDFE01BB
:1013D0009701A801DA9479F7DF90EF90FF900F91D1
:1013E0001F91CF91DF9108952F923F924F925F927C
:1013F0006F927F928F929F92AF92BF92CF92DF9225
:10140000EF92FF920F931F93CF93DF93CDB7DEB789
:1014100060970FB6F894DEBF0FBECDBF7C011B01F5
:101420006A01FC0117821682838181FF2BC39E0112
:101430002F5F3F4F3901F7019381F10193FD8591B2
:1014400093FF81911F01882309F418C3853239F471
:1014500093FD859193FF81911F01853239F4B70186
:1014600090E00E94F51256016501E5CF10E0512C85
:10147000912CFFE1F915D8F08B3279F038F48032F5
:1014800079F08332A1F4F92DF0612EC08D3261F034
:10149000803369F4292D21602DC0392D3260932EBF
:1014A000892D8460982E2AC0E92DE86015C097FC2C
:1014B0002DC020ED280F2A3088F496FE06C03AE0B1
:1014C000139F200D1124122F19C08AE0589E200D61
:1014D0001124522EE92DE0629E2E10C08E3231F47E
:1014E00096FCCCC2F92DF0649F2E08C08C3621F4F6
:1014F000292D2068922E02C0883641F4F10193FD17
:10150000859193FF81911F018111B3CF9BEB980FC0
:10151000933020F4992D9061805E07C09BE9980F6D
:10152000933008F059C1992D9F7E96FF16E09F7366
:10153000992E853619F49064992E08C0863621F4C8
:10154000392F3068932E02C01111115097FE07C039
:101550001C3350F444244394410E27E00BC0183050
:1015600038F027E017E005C027E09CE3492E02C0D1
:10157000212F412C560184E0A80EB11CF601608198
:10158000718182819381042DA301E8D66C01F981D8
:10159000FC87F0FF02C0F3FF06C091FC06C092FE7C
:1015A00006C000E205C00DE203C00BE201C000E08E
:1015B0008C858C7019F0011143C280C297FE10C057
:1015C0004C0CFC85F4FF04C08A81813309F44A94F1
:1015D000141474F528E0241578F588E0482E2CC002
:1015E00096FC2AC0812F90E08C159D059CF03CEF65
:1015F000C3163FEFD30674F0892D8068982E0AC079
:10160000E2E0F0E0EC0FFD1FE10FF11D808180337F
:1016100019F411501111F4CF97FE0EC044244394D5
:10162000410E812F90E0C816D9062CF41C1904C075
:101630004424439401C010E097FE06C01C141D040E
:1016400034F4C601019605C085E090E002C081E057
:1016500090E001110196112331F0212F30E02F5F2E
:101660003F4F820F931F252D30E08217930714F40C
:10167000581A01C0512C892D897041F4552031F040
:10168000B70180E290E0B1D75A94F8CF002321F05F
:10169000B701802F90E0A9D793FC08C0552031F006
:1016A000B70180E390E0A1D75A94F8CF97FE4AC0E3
:1016B0004601D7FE02C0812C912CC60188199909D8
:1016C000F301E80FF91FFE87ED8796012419310910
:1016D000388B2F87012F10E01195019511093FEFED
:1016E0008316930621F4B7018EE290E07ED7C814EA
:1016F000D9044CF08F8598898815990524F4ED85D7
:10170000FE85818101C080E3F1E08F1A91082D856B
:101710003E852F5F3F4F3E872D878016910624F030
:10172000B70190E062D7DBCFC814D90441F49A81A5
:10173000963320F4953319F43C8534FF81E3B701E7
:1017400090E048C08A81813319F09C859F7E9C87F8
:10175000B70190E04AD7111105C094FC16C085E688
:1017600090E015C0B7018EE290E03FD71E5F82E0A7
:1017700001E0080FF301E80FF11D8081B70190E04F
:1017800034D7802F0113F4CFE8CF85E490E0B70180
:101790002CD7D7FC06C0C114D10441F4EC85E4FF7A
:1017A00005C0D194C194D1088DE201C08BE2B7018C
:1017B00090E01BD780E32AE0C216D1042CF08F5FA3
:1017C000FAE0CF1AD108F7CFB70190E00ED7B701F2
:1017D000C601C0960AD749C1833631F0833779F004
:1017E000833509F052C01FC0560132E0A30EB11C70
:1017F000F6018081898301E010E0630111C0560188
:10180000F2E0AF0EB11CF601C080D18096FE03C09D
:10181000612F70E002C06FEF7FEFC6019DD68C0193
:10182000F92DFF7713C0560122E0A20EB11CF6017C
:10183000C080D18096FE03C0612F70E002C06FEFC0
:101840007FEFC6017ED68C01F92DF0689F2EF3FD47
:1018500018C0852D90E00817190798F4B70180E2A9
:1018600090E0C3D65A94F5CFF60197FC859197FE88
:1018700081916F01B70190E0B8D651105A94015090
:1018800011090115110581F7F0C0843611F0893670
:1018900059F5560197FE09C024E0A20EB11CF601CD
:1018A00060817181828193810AC0F2E0AF0EB11C28
:1018B000F60160817181072E000C880B990BF92DC0
:1018C000FF769F2E97FF09C0909580957095619542
:1018D0007F4F8F4F9F4FF0689F2E2AE030E0A3018B
:1018E000D9D6C82EC6183EC0092D853721F40F7EE3
:1018F0002AE030E01DC0097F8F3691F018F488355A
:1019000059F0BCC0803719F0883711F0B7C00061BA
:1019100004FF09C0046007C094FE08C0066006C04A
:1019200028E030E005C020E130E002C020E132E0F4
:10193000560107FF09C084E0A80EB11CF6016081C2
:1019400071818281938108C0F2E0AF0EB11CF60173
:101950006081718180E090E0A3019CD6C82EC618FA
:101960000F77902E96FE0BC0092D0E7FC11650F4F6
:1019700094FE0AC092FC08C0092D0E7E05C0DC2C26
:10198000092D03C0DC2C01C0D12E04FF0DC0FE01C7
:10199000EC0DF11D8081803311F4097E09C002FF36
:1019A00006C0D394D39404C0802F867809F0D394D2
:1019B00003FD10C000FF06C01C2DD51478F4150DD2
:1019C0001D190CC0D51450F4B70180E290E00DD67B
:1019D000D394F8CFD51410F45D1801C0512C04FF36
:1019E0000FC0B70180E390E000D602FF16C001FDF2
:1019F00003C088E790E002C088E590E0B7010CC022
:101A0000802F867851F001FF02C08BE201C080E296
:101A100007FD8DE2B70190E0E8D5C11630F4B701BB
:101A200080E390E0E2D51150F8CFCA94F301EC0DB9
:101A3000F11D8081B70190E0D8D5C110F6CF15C057
:101A4000F4E0F51550F584E0581A93FE1EC001111C
:101A500025C02C8523FF27C002E811E0392D307105
:101A6000932EF8018491811121C0552009F4FCCCFA
:101A7000B70180E290E0B9D55A94F7CFF70186819B
:101A8000978123C08FEF9FEF20C0B70180E290E0E5
:101A9000ACD55A945110F9CFDACF512CB701802F21
:101AA00090E0A3D5D6CF06E811E0D8CF91108052B0
:101AB000B70190E09AD50F5F1F4FD3CF23E02515D4
:101AC00010F483E0C1CF512CC4CF60960FB6F894C8
:101AD000DEBF0FBECDBFDF91CF911F910F91FF9061
:101AE000EF90DF90CF90BF90AF909F908F907F90BE
:101AF0006F905F904F903F902F90089520FD09C008
:101B0000FC0123FD05C022FF02C073836283518361
:101B10004083089544FD17C046FD17C0AB01BC01CA
:101B2000DA01FB01AA0FBB1FEE1FFF1F1094D1F7B4
:101B30004A0F5B1F6E1F7F1FCB01BA01660F771F15
:101B4000881F991F09C033E001C034E0660F771F7A
:101B5000881F991F3150D1F7620F711D811D911D92
:101B600008950F931F93CF93DF938C01C801FFD487
:101B7000EC0197FD06C0CAD4892BC1F7B801CE018C
:101B800070D5CE01DF91CF911F910F9108958F9263
:101B90009F92AF92BF92CF92DF92EF92FF920F93FC
:101BA0001F93CF93DF937C018B016A01D22FDFD487
:101BB0009C0133272B32310521F02D32310551F4B0
:101BC000D0680150110911F480E064C0C701CFD47E
:101BD00097FDFACFCD2FCD7F2D2F207309F58033C0
:101BE000F9F4580181E0A81AB10809F440C0C7010E
:101BF000BED497FD3CC09C012F7D3327283531058D
:101C000049F4C2640250110991F1C701B0D497FFA1
:101C100007C02DC0D6FF02C0C26001C0C2618501ED
:101C2000812C912C540120ED280F283078F0C4FF2E
:101C300003C0B70116D518C02A3040F0C6FFF9CF4F
:101C40002F7D3FEE320F3630A0F727504C2FC501C5
:101C5000B40160DF4B015C01C2600150110951F019
:101C6000C70185D497FFDFCFC1FD04C0ADCF812C64
:101C7000912C5401C7FF08C0B094A0949094809414
:101C8000811C911CA11CB11C2C2FB501A401C60103
:101C900035DF81E0DF91CF911F910F91FF90EF90A1
:101CA000DF90CF90BF90AF909F908F9008954F920C
:101CB0005F926F927F928F929F92AF92BF92CF92DC
:101CC000DF92EF92FF920F931F93CF93DF93CDB7E5
:101CD000DEB7A0970FB6F894DEBF0FBECDBF5C0194
:101CE0004B017A018E010F5F1F4F680180E2F801FE
:101CF00011928A95E9F7F501538040E050E0612C9C
:101D000090E0712CA1E0B0E0F90153FC859153FE05
:101D100081918F01482E9F01811103C080E090E0E6
:101D200094C08E3519F44115510551F1672D70E0BD
:101D3000641775073CF48D3561F18D3219F49923E0
:101D400011F103C0992309F46BC0842D8695869503
:101D50008695F601E80FF11D842D87708D0102C074
:101D6000000F111F8A95E2F7C8019081892B8083AB
:101D7000641459F0461410F44394E7CF4A94E5CF25
:101D80007724739403C091E001C090E04F5F5F4FF0
:101D9000BBCF992319F08E8180628E83711003C0AE
:101DA0007724739419C0F6019E012F5D3F4F808107
:101DB000809581932E173F07D1F7F2CFE114F104FC
:101DC00031F0F7018083B7016F5F7F4F7B0171E0D6
:101DD000871A9108712CE9F0C501C9D397FD17C086
:101DE000FC01FF2723E0F595E7952A95E1F7EC0D37
:101DF000FD1D208130E0AC014770552702C03595AC
:101E000027954A95E2F720FDD9CFB5012AD4711064
:101E100085CFE114F10411F0F7011082C80115C05B
:101E2000682F669566956695F601E60FF11D682F99
:101E300067708D0102C0000F111F6A95E2F7B801AB
:101E40007081672B6083682EA1CFA0960FB6F8949F
:101E5000DEBF0FBECDBFDF91CF911F910F91FF90DD
:101E6000EF90DF90CF90BF90AF909F908F907F903A
:101E70006F905F904F9008952F923F924F925F9294
:101E80006F927F929F92AF92BF92CF92DF92EF922A
:101E9000FF920F931F93CF93DF936C018B011A0175
:101EA00066D3EC0199278B32910529F08D9779F44F
:101EB00030E8932E01C0912C0150110911F480E0FB
:101EC000FEC0C60154D3EC0197FF02C0F8CF912C9D
:101ED000CE0124D38936910531F08E36910581F5F6
:101EE000C6E9D2E002C0C9E9D2E02196FE013197ED
:101EF000B490BB20B1F00150110979F0C60137D37D
:101F00007C0197FD0AC00AD39927EB2DF0E08E17CC
:101F10009F0759F3B601C701A4D3CC59D24079F633
:101F200003C0C959D24029F080E090E0A0E8BFE7A3
:101F300004C080E090E0A0ECBFE7BC01CD01AFC0E1
:101F4000412C512C3201E12CF12C2C2F20532A3022
:101F500008F5E92DE260BE2E892D887092FE06C03C
:101F600081111FC0FFEFEF1AFF0A1BC0882319F071
:101F700081E0E81AF10840E2C301B201CBDD2B0198
:101F80003C01683979498949994158F0F92DF66041
:101F9000BF2E07C02E3F81F493FC0EC0292D286070
:101FA000B22E0150110939F0C601E1D2EC019B2C8F
:101FB00097FFCBCF01C09B2C91FE81CFCE018F7DAF
:101FC00099278534910509F03EC0580181E0A81A8F
:101FD000B10809F474CFC601CAD2EC0197FD6FCFE6
:101FE00099278B32910529F08D9761F4E92DE061F5
:101FF0009E2E5801F2E0AF1AB10809F460CFC60175
:10200000B6D2EC01CE01C0970A9708F058CF8501EF
:10201000A12CB12CB501BB0C880B990B2C2F205394
:1020200040E278DD5B010150110931F0C6019FD219
:10203000EC01C0970A9770F394FE03C0B194A19489
:10204000B108EA0CFB1C012B29F0D7FD03C0B60137
:10205000CE0107D3C301B2015ED8F7FE06C0F194EA
:10206000E194F108C5EBD2E002C0CDECD2E06E0104
:1020700028E1C21AD10800E210E0E016F10648F0AB
:10208000FE01259135914591549118D9E01AF10A34
:10209000F4CF249716950795CC16DD0671F797FEB9
:1020A00005C0DC01CB01B058BC01CD0121143104C5
:1020B00029F0F101608371838283938381E0DF9152
:1020C000CF911F910F91FF90EF90DF90CF90BF9035
:1020D000AF909F907F906F905F904F903F902F9028
:1020E00008956F927F928F929F92AF92BF92CF92FC
:1020F000DF92EF92FF920F931F93CF93DF935C01D8
:10210000EB014A01FC0117821682612CF501038163
:10211000FE0103FD859103FF8191182FEF018823B4
:1021200009F400C190E0F2D1892B19F0C50119DD45
:10213000EDCF153241F4FE0103FD159103FF11911E
:10214000EF01153271F4C50112D297FDE9C0412F9C
:1021500050E09C01332724173507C1F2B50181D225
:10216000E1C01A3241F403FD159103FF1191EF0113
:102170007724739401C0712CE12CF12C20ED210FF8
:102180002A3080F4F72DF2607F2EB70180E090E0D6
:1021900040E2C0DC7B01FE0103FD159103FF1191BC
:1021A000EF01ECCF71FE04C0E114F10421F4BAC0D8
:1021B000EE24EA94FE2C183619F01C3661F014C097
:1021C000FE0103FD159103FF1191EF01183661F433
:1021D000872D8860782E972D9460792EFE0103FD5F
:1021E000159103FF1191EF01112309F49BC0612F99
:1021F00070E084E892E09AD1892B09F493C070FCD6
:1022000007C0F401C080D180C40102964C0102C015
:10221000C12CD12C1E3649F4F5014681578160E06E
:1022200070E0272DC6016ADC71CF1336B1F471FC62
:1022300003C0EE24E394F12CC50199D197FD70C041
:10224000C114D10429F0F6018083C60101966C0106
:1022500091E0E91AF10881F75FC01B3551F49E0146
:10226000A601B701C50123DDEC01892B09F054C09B
:102270004EC0C50176DC97FD53C01F36C9F140F44E
:10228000143691F11936B9F1183509F03AC028C061
:102290001337A9F018F4103719F133C0153721F1AD
:1022A0001837F1F02EC0C114D10429F0F6010083D3
:1022B000C60101966C0191E0E91AF10859F0C501D7
:1022C00056D18C0197FD06C021D1892B61F3B50150
:1022D000C801C7D1C114D104F9F0F60110821CC0A5
:1022E000F72DF0647F2E07C0872D8062782E03C003
:1022F000972D9061792E272DA601B701C50147DCE6
:1023000004C0A601B701C501B7DD811105C0F50103
:102310008381807329F406C070FCF8CE6394F6CEF6
:10232000662019F0862D90E002C08FEF9FEFDF91BD
:10233000CF911F910F91FF90EF90DF90CF90BF90C2
:10234000AF909F908F907F906F900895EE0FFF1F3A
:10235000881F8BBF0790F691E02D1994283008F064
:1023600027E03327DA01990F311D87FD9160009630
:102370006105710539F432602E5F3D9330E32A9593
:10238000E1F708959F3F30F080387105610509F04D
:102390003C5F3C5F3D93913008F08068911DDF9376
:1023A000CF931F930F93FF92EF92192F987F9695DB
:1023B000E92F96959695E90FFF27EC51FE4F992747
:1023C0003327EE24FF24A701E70105900894079422
:1023D00028F4360FE71EF81E491F511D660F771FA0
:1023E000881F991F0694A1F70590079428F4E70E1B
:1023F000F81E491F561FC11D770F881F991F661FA2
:102400000694A1F70590079428F4F80E491F561F6B
:10241000C71FD11D880F991F661F771F0694A1F74C
:102420000590079420F4490F561FC71FD81F990F16
:10243000661F771F881F0694A9F78491109517705F
:1024400041F0D695C79557954795F794E7941A9517
:10245000C1F7EAE8F1E0689415901591359165911E
:10246000959105907FE27395E118F10A430B560BA5
:10247000C90BD009C0F7E10CF11E431F561FC91F3D
:10248000D01D7EF4703311F48A95E6CFE8940150A4
:1024900030F0080F0AF40027021708F4202F2395C4
:1024A000022F7A3328F079E37D932A95E9F710C05B
:1024B0007D932A9589F60694979567953795179594
:1024C0001794E118F10A430B560BC90BD00998F089
:1024D00023957E9173957A3308F070E37C932013F3
:1024E000B8F77E9170617D9330F0839571E37D93B1
:1024F00070E32A95E1F71124EF90FF900F911F915F
:10250000CF91DF91992787FD90950895911120C172
:10251000803219F089508550D0F7089591110895AF
:1025200081548A5108F4805E855A0895FC01059013
:10253000061621F00020D9F7C00108953197CF0188
:102540000895FC010590615070400110D8F7809506
:1025500090958E0F9F1F0895FC016150704001906F
:102560000110D8F7809590958E0F9F1F0895CF93F7
:10257000DF93EC012B8120FF33C026FF0AC02F7BA5
:102580002B838E819F8101969F838E838A8190E029
:1025900029C022FF0FC0E881F9818081082E000C3C
:1025A000990B009719F420622B831AC03196F98396
:1025B000E8830EC0EA85FB85199597FF09C02B813A
:1025C000019611F080E201C080E1822B8B8308C06C
:1025D0002E813F812F5F3F4F3F832E83992702C07B
:1025E0008FEF9FEFDF91CF9108950F931F93CF93BC
:1025F000DF93FB01238121FD03C08FEF9FEF2CC0F0
:1026000022FF16C046815781248135814217530726
:1026100044F4A081B1819D012F5F3F4F318320831E
:102620008C93268137812F5F3F4F3783268314C0D9
:102630008B01EC01FB010084F185E02D1995892BBC
:10264000E1F6D80116968D919C91179701961796F1
:102650009C938E931697CE01DF91CF911F910F918E
:102660000895FB01238120FF12C026FD10C08F3F7B
:102670003FEF930761F082832F7D206423832681BF
:1026800037812150310937832683992708958FEFA9
:102690009FEF0895FA01AA27283051F1203181F1E6
:1026A000E8946F936E7F6E5F7F4F8F4F9F4FAF4F5A
:1026B000B1E03ED0B4E03CD0670F781F891F9A1F6D
:1026C000A11D680F791F8A1F911DA11D6A0F711D21
:1026D000811D911DA11D20D009F468943F912AE02D
:1026E000269F11243019305D3193DEF6CF01089515
:1026F000462F4770405D4193B3E00FD0C9F7F6CF46
:10270000462F4F70405D4A3318F0495D31FD40520D
:10271000419302D0A9F7EACFB4E0A69597958795A3
:1027200077956795BA95C9F7009761057105089582
:102730009B01AC010A2E069457954795379527952E
:10274000BA95C9F7620F731F841F951FA01D0895C6
:0A275000992788270895F894FFCF19
:10275A000100000000030000000063076B0700008F
:10276A00476C616564656C6967204A756C0A004F3D
:10277A006720476F6474204E7974616172004A69F8
:10278A006E676C652042656C6C730A004A696E67F5
:10279A006C6520416C6C0A005468652057617900A9
:1027AA004F6820576861742046756E0A0049742084
:1027BA00697320746F2072756E00496E2061204F14
:1027CA006E652D486F7273650A004F70656E2053EF
:1027DA006C6569676821200048657921004B6E6144
:1027EA007020223722004B6E617020222A22004B71
:1027FA006E617020223822004B6E617020223022D6
:10280A00004B6E617020223322004B6E61702022D1
:10281A003622004B6E617020223922004B6E6170A5
:06282A0020222322000021
:00000001FF
